{
  "_format": "hh-sol-artifact-1",
  "contractName": "CollateralLever",
  "sourceName": "contracts/CollateralLever.sol",
  "abi": [
    {
      "inputs": [
        {
          "internalType": "address",
          "name": "uniswapV2Router",
          "type": "address"
        },
        {
          "internalType": "address",
          "name": "uniswapV2Factory",
          "type": "address"
        },
        {
          "internalType": "address",
          "name": "unitroller",
          "type": "address"
        }
      ],
      "stateMutability": "nonpayable",
      "type": "constructor"
    },
    {
      "inputs": [
        {
          "internalType": "uint256",
          "name": "error",
          "type": "uint256"
        }
      ],
      "name": "CollateralLever__CErc20MintFailed",
      "type": "error"
    },
    {
      "inputs": [],
      "name": "CollateralLever__approveFailed",
      "type": "error"
    },
    {
      "inputs": [
        {
          "internalType": "uint256",
          "name": "error",
          "type": "uint256"
        }
      ],
      "name": "CollateralLever__cErc20BorrowFailed",
      "type": "error"
    },
    {
      "inputs": [
        {
          "internalType": "uint256",
          "name": "error",
          "type": "uint256"
        }
      ],
      "name": "CollateralLever__cErc20RedeemUnderlyingFailed",
      "type": "error"
    },
    {
      "inputs": [
        {
          "internalType": "uint256",
          "name": "error",
          "type": "uint256"
        }
      ],
      "name": "CollateralLever__cErc20RepayBorrowFailed",
      "type": "error"
    },
    {
      "inputs": [],
      "name": "CollateralLever__callerIsNotUniswapPair",
      "type": "error"
    },
    {
      "inputs": [],
      "name": "CollateralLever__investmentAmountIsZero",
      "type": "error"
    },
    {
      "inputs": [],
      "name": "CollateralLever__leverIsWrong",
      "type": "error"
    },
    {
      "inputs": [
        {
          "internalType": "address",
          "name": "user",
          "type": "address"
        },
        {
          "internalType": "uint256",
          "name": "positionId",
          "type": "uint256"
        }
      ],
      "name": "CollateralLever__notFindPosition",
      "type": "error"
    },
    {
      "inputs": [],
      "name": "CollateralLever__notOwnerOfPosition",
      "type": "error"
    },
    {
      "inputs": [],
      "name": "CollateralLever__tokenBaseEqTokenQuote",
      "type": "error"
    },
    {
      "inputs": [
        {
          "internalType": "address",
          "name": "token",
          "type": "address"
        }
      ],
      "name": "CollateralLever__tokenNotSupport",
      "type": "error"
    },
    {
      "inputs": [],
      "name": "CollateralLever__transferFailed",
      "type": "error"
    },
    {
      "inputs": [],
      "name": "CollateralLever__transferFromFailed",
      "type": "error"
    },
    {
      "anonymous": false,
      "inputs": [
        {
          "indexed": false,
          "internalType": "address",
          "name": "cTokenAddress",
          "type": "address"
        }
      ],
      "name": "AddSupportedCToken",
      "type": "event"
    },
    {
      "anonymous": false,
      "inputs": [
        {
          "indexed": false,
          "internalType": "address",
          "name": "user",
          "type": "address"
        },
        {
          "indexed": false,
          "internalType": "uint256",
          "name": "positionId",
          "type": "uint256"
        }
      ],
      "name": "ClosePositionSucc",
      "type": "event"
    },
    {
      "anonymous": false,
      "inputs": [
        {
          "indexed": false,
          "internalType": "address",
          "name": "user",
          "type": "address"
        },
        {
          "components": [
            {
              "internalType": "address",
              "name": "userAddress",
              "type": "address"
            },
            {
              "internalType": "address",
              "name": "cTokenCollateralAddress",
              "type": "address"
            },
            {
              "internalType": "address",
              "name": "cTokenBorrowingAddress",
              "type": "address"
            },
            {
              "internalType": "uint256",
              "name": "collateralAmountOfCollateralToken",
              "type": "uint256"
            },
            {
              "internalType": "uint256",
              "name": "collateralAmountOfCollateralCToken",
              "type": "uint256"
            },
            {
              "internalType": "uint256",
              "name": "borrowedAmountOfBorrowingToken",
              "type": "uint256"
            },
            {
              "internalType": "bool",
              "name": "isShort",
              "type": "bool"
            },
            {
              "internalType": "uint256",
              "name": "positionId",
              "type": "uint256"
            }
          ],
          "indexed": false,
          "internalType": "struct CollateralLever.PositionInfo",
          "name": "positionInfo",
          "type": "tuple"
        }
      ],
      "name": "OpenPositionSucc",
      "type": "event"
    },
    {
      "anonymous": false,
      "inputs": [
        {
          "indexed": true,
          "internalType": "address",
          "name": "previousOwner",
          "type": "address"
        },
        {
          "indexed": true,
          "internalType": "address",
          "name": "newOwner",
          "type": "address"
        }
      ],
      "name": "OwnershipTransferred",
      "type": "event"
    },
    {
      "inputs": [
        {
          "internalType": "address",
          "name": "cTokenAddress",
          "type": "address"
        }
      ],
      "name": "addSupportedCToken",
      "outputs": [],
      "stateMutability": "nonpayable",
      "type": "function"
    },
    {
      "inputs": [
        {
          "internalType": "uint256",
          "name": "positionId",
          "type": "uint256"
        }
      ],
      "name": "closePosition",
      "outputs": [],
      "stateMutability": "nonpayable",
      "type": "function"
    },
    {
      "inputs": [],
      "name": "getComptrollerAddress",
      "outputs": [
        {
          "internalType": "address",
          "name": "",
          "type": "address"
        }
      ],
      "stateMutability": "view",
      "type": "function"
    },
    {
      "inputs": [],
      "name": "getNextPostionId",
      "outputs": [
        {
          "internalType": "uint256",
          "name": "",
          "type": "uint256"
        }
      ],
      "stateMutability": "view",
      "type": "function"
    },
    {
      "inputs": [],
      "name": "getUniswapV2FactoryAddress",
      "outputs": [
        {
          "internalType": "address",
          "name": "",
          "type": "address"
        }
      ],
      "stateMutability": "view",
      "type": "function"
    },
    {
      "inputs": [],
      "name": "getUniswapV2RouterAddress",
      "outputs": [
        {
          "internalType": "address",
          "name": "",
          "type": "address"
        }
      ],
      "stateMutability": "view",
      "type": "function"
    },
    {
      "inputs": [
        {
          "internalType": "address",
          "name": "tokenBase",
          "type": "address"
        },
        {
          "internalType": "address",
          "name": "tokenQuote",
          "type": "address"
        },
        {
          "internalType": "uint256",
          "name": "investmentAmount",
          "type": "uint256"
        },
        {
          "internalType": "bool",
          "name": "investmentIsQuote",
          "type": "bool"
        },
        {
          "internalType": "uint256",
          "name": "lever",
          "type": "uint256"
        },
        {
          "internalType": "bool",
          "name": "isShort",
          "type": "bool"
        }
      ],
      "name": "openPosition",
      "outputs": [],
      "stateMutability": "nonpayable",
      "type": "function"
    },
    {
      "inputs": [],
      "name": "owner",
      "outputs": [
        {
          "internalType": "address",
          "name": "",
          "type": "address"
        }
      ],
      "stateMutability": "view",
      "type": "function"
    },
    {
      "inputs": [],
      "name": "renounceOwnership",
      "outputs": [],
      "stateMutability": "nonpayable",
      "type": "function"
    },
    {
      "inputs": [
        {
          "internalType": "address",
          "name": "",
          "type": "address"
        }
      ],
      "name": "s_token2CToken",
      "outputs": [
        {
          "internalType": "address",
          "name": "",
          "type": "address"
        }
      ],
      "stateMutability": "view",
      "type": "function"
    },
    {
      "inputs": [
        {
          "internalType": "address",
          "name": "",
          "type": "address"
        },
        {
          "internalType": "uint256",
          "name": "",
          "type": "uint256"
        }
      ],
      "name": "s_userAddress2PositionInfos",
      "outputs": [
        {
          "internalType": "address",
          "name": "userAddress",
          "type": "address"
        },
        {
          "internalType": "address",
          "name": "cTokenCollateralAddress",
          "type": "address"
        },
        {
          "internalType": "address",
          "name": "cTokenBorrowingAddress",
          "type": "address"
        },
        {
          "internalType": "uint256",
          "name": "collateralAmountOfCollateralToken",
          "type": "uint256"
        },
        {
          "internalType": "uint256",
          "name": "collateralAmountOfCollateralCToken",
          "type": "uint256"
        },
        {
          "internalType": "uint256",
          "name": "borrowedAmountOfBorrowingToken",
          "type": "uint256"
        },
        {
          "internalType": "bool",
          "name": "isShort",
          "type": "bool"
        },
        {
          "internalType": "uint256",
          "name": "positionId",
          "type": "uint256"
        }
      ],
      "stateMutability": "view",
      "type": "function"
    },
    {
      "inputs": [
        {
          "internalType": "address",
          "name": "newOwner",
          "type": "address"
        }
      ],
      "name": "transferOwnership",
      "outputs": [],
      "stateMutability": "nonpayable",
      "type": "function"
    },
    {
      "inputs": [
        {
          "internalType": "address",
          "name": "sender",
          "type": "address"
        },
        {
          "internalType": "uint256",
          "name": "amount0",
          "type": "uint256"
        },
        {
          "internalType": "uint256",
          "name": "amount1",
          "type": "uint256"
        },
        {
          "internalType": "bytes",
          "name": "data",
          "type": "bytes"
        }
      ],
      "name": "uniswapV2Call",
      "outputs": [],
      "stateMutability": "nonpayable",
      "type": "function"
    }
  ],
  "bytecode": "0x60e06040523480156200001157600080fd5b5060405162004655380380620046558339818101604052810190620000379190620001ef565b620000576200004b6200010c60201b60201c565b6200011460201b60201c565b600180819055508273ffffffffffffffffffffffffffffffffffffffff1660808173ffffffffffffffffffffffffffffffffffffffff1660601b815250508173ffffffffffffffffffffffffffffffffffffffff1660a08173ffffffffffffffffffffffffffffffffffffffff1660601b815250508073ffffffffffffffffffffffffffffffffffffffff1660c08173ffffffffffffffffffffffffffffffffffffffff1660601b815250505050506200029e565b600033905090565b60008060009054906101000a900473ffffffffffffffffffffffffffffffffffffffff169050816000806101000a81548173ffffffffffffffffffffffffffffffffffffffff021916908373ffffffffffffffffffffffffffffffffffffffff1602179055508173ffffffffffffffffffffffffffffffffffffffff168173ffffffffffffffffffffffffffffffffffffffff167f8be0079c531659141344cd1fd0a4f28419497f9722a3daafe3b4186f6b6457e060405160405180910390a35050565b600081519050620001e98162000284565b92915050565b6000806000606084860312156200020b576200020a6200027f565b5b60006200021b86828701620001d8565b93505060206200022e86828701620001d8565b92505060406200024186828701620001d8565b9150509250925092565b600062000258826200025f565b9050919050565b600073ffffffffffffffffffffffffffffffffffffffff82169050919050565b600080fd5b6200028f816200024b565b81146200029b57600080fd5b50565b60805160601c60a05160601c60c05160601c61433f620003166000396000818161051c0152612abf0152600081816103c401528181610a5a0152818161113f0152818161138401528181611c1101526122880152600081816114f201528181611a1f0152818161219501526127b7015261433f6000f3fe608060405234801561001057600080fd5b50600436106100cf5760003560e01c8063906404f71161008c578063bbdda36011610066578063bbdda360146101d8578063cdc579d7146101f6578063f2fde38b1461022d578063fde3066b14610249576100cf565b8063906404f7146101845780639c9991a1146101a0578063a126d601146101bc576100cf565b806310d1e85c146100d45780632565d2d2146100f05780634ee9159a1461010e578063583440be1461012c578063715018a61461015c5780638da5cb5b14610166575b600080fd5b6100ee60048036038101906100e991906133db565b610267565b005b6100f861050e565b6040516101059190613bbd565b60405180910390f35b610116610518565b6040516101239190613929565b60405180910390f35b61014660048036038101906101419190613212565b610540565b6040516101539190613929565b60405180910390f35b610164610573565b005b61016e610587565b60405161017b9190613929565b60405180910390f35b61019e60048036038101906101999190613212565b6105b0565b005b6101ba60048036038101906101b5919061330e565b6106ed565b005b6101d660048036038101906101d191906134d9565b610c8d565b005b6101e0611380565b6040516101ed9190613929565b60405180910390f35b610210600480360381019061020b919061339b565b6113a8565b604051610224989796959493929190613944565b60405180910390f35b61024760048036038101906102429190613212565b61146a565b005b6102516114ee565b60405161025e9190613929565b60405180910390f35b60008060008060008060008888810190610281919061326c565b9650965096509650965096509650600082610319578773ffffffffffffffffffffffffffffffffffffffff16636f307dc36040518163ffffffff1660e01b815260040160206040518083038186803b1580156102dc57600080fd5b505afa1580156102f0573d6000803e3d6000fd5b505050506040513d601f19601f82011682018060405250810190610314919061323f565b61031b565b875b90506000836103a7578773ffffffffffffffffffffffffffffffffffffffff16636f307dc36040518163ffffffff1660e01b815260040160206040518083038186803b15801561036a57600080fd5b505afa15801561037e573d6000803e3d6000fd5b505050506040513d601f19601f820116820180604052508101906103a2919061323f565b6103a9565b875b90506103b482611516565b6103bd81611516565b60006103ea7f000000000000000000000000000000000000000000000000000000000000000084846115ea565b90503373ffffffffffffffffffffffffffffffffffffffff168173ffffffffffffffffffffffffffffffffffffffff1614610451576040517fd50b34d400000000000000000000000000000000000000000000000000000000815260040160405180910390fd5b600061045d848461165c565b509050856104b3576104ae8373ffffffffffffffffffffffffffffffffffffffff168273ffffffffffffffffffffffffffffffffffffffff16146104a1578e6104a3565b8f5b8c8c8c8c8c8b61178a565b6104fc565b6104fb8373ffffffffffffffffffffffffffffffffffffffff168273ffffffffffffffffffffffffffffffffffffffff16146104ef578f6104f1565b8e5b8c8c8c8c8c611fe5565b5b50505050505050505050505050505050565b6000600354905090565b60007f0000000000000000000000000000000000000000000000000000000000000000905090565b60056020528060005260406000206000915054906101000a900473ffffffffffffffffffffffffffffffffffffffff1681565b61057b6125a5565b6105856000612623565b565b60008060009054906101000a900473ffffffffffffffffffffffffffffffffffffffff16905090565b6105b86125a5565b80600560008373ffffffffffffffffffffffffffffffffffffffff16636f307dc36040518163ffffffff1660e01b815260040160206040518083038186803b15801561060357600080fd5b505afa158015610617573d6000803e3d6000fd5b505050506040513d601f19601f8201168201806040525081019061063b919061323f565b73ffffffffffffffffffffffffffffffffffffffff1673ffffffffffffffffffffffffffffffffffffffff16815260200190815260200160002060006101000a81548173ffffffffffffffffffffffffffffffffffffffff021916908373ffffffffffffffffffffffffffffffffffffffff1602179055507fab0836c49e8e32d3a948c7b0a94b795492ddc2b75cd72d18869d78eb5c79e3e0816040516106e29190613929565b60405180910390a150565b8473ffffffffffffffffffffffffffffffffffffffff168673ffffffffffffffffffffffffffffffffffffffff161415610753576040517f034bb63900000000000000000000000000000000000000000000000000000000815260040160405180910390fd5b600084141561078e576040517f59f2d53100000000000000000000000000000000000000000000000000000000815260040160405180910390fd5b600382118061079d5750600282105b156107d4576040517f515145ec00000000000000000000000000000000000000000000000000000000815260040160405180910390fd5b6107dd86611516565b6107e685611516565b6000836107f357866107f5565b855b9050610803813330886126e7565b6000806000879050841561081c57889250899150610823565b8992508891505b8273ffffffffffffffffffffffffffffffffffffffff168473ffffffffffffffffffffffffffffffffffffffff1614610a37576000600267ffffffffffffffff8111156108735761087261406a565b5b6040519080825280602002602001820160405280156108a15781602001602082028036833780820191505090505b5090508a73ffffffffffffffffffffffffffffffffffffffff168473ffffffffffffffffffffffffffffffffffffffff16141561097b5789816000815181106108ed576108ec61403b565b5b602002602001019073ffffffffffffffffffffffffffffffffffffffff16908173ffffffffffffffffffffffffffffffffffffffff16815250508a8160018151811061093c5761093b61403b565b5b602002602001019073ffffffffffffffffffffffffffffffffffffffff16908173ffffffffffffffffffffffffffffffffffffffff1681525050610a1a565b8a816000815181106109905761098f61403b565b5b602002602001019073ffffffffffffffffffffffffffffffffffffffff16908173ffffffffffffffffffffffffffffffffffffffff168152505089816001815181106109df576109de61403b565b5b602002602001019073ffffffffffffffffffffffffffffffffffffffff16908173ffffffffffffffffffffffffffffffffffffffff16815250505b610a3389823061025842610a2e9190613d9d565b6127b2565b9150505b6000600187610a469190613e4d565b82610a519190613df3565b90506000610a807f00000000000000000000000000000000000000000000000000000000000000008d8d6115ea565b90506000858585338b60016000604051602001610aa397969594939291906139f9565b60405160208183030381529060405290506000610ac08e8e61165c565b5090506000808873ffffffffffffffffffffffffffffffffffffffff168373ffffffffffffffffffffffffffffffffffffffff161415610b0257859150610b06565b8590505b6000600267ffffffffffffffff811115610b2357610b2261406a565b5b604051908082528060200260200182016040528015610b515781602001602082028036833780820191505090505b5090508881600081518110610b6957610b6861403b565b5b602002602001019073ffffffffffffffffffffffffffffffffffffffff16908173ffffffffffffffffffffffffffffffffffffffff16815250508981600181518110610bb857610bb761403b565b5b602002602001019073ffffffffffffffffffffffffffffffffffffffff16908173ffffffffffffffffffffffffffffffffffffffff16815250508060029080519060200190610c08929190612fe4565b508573ffffffffffffffffffffffffffffffffffffffff1663022c0d9f848430896040518563ffffffff1660e01b8152600401610c489493929190613c62565b600060405180830381600087803b158015610c6257600080fd5b505af1158015610c76573d6000803e3d6000fd5b505050505050505050505050505050505050505050565b33816000600660008473ffffffffffffffffffffffffffffffffffffffff1673ffffffffffffffffffffffffffffffffffffffff1681526020019081526020016000206000838152602001908152602001600020604051806101000160405290816000820160009054906101000a900473ffffffffffffffffffffffffffffffffffffffff1673ffffffffffffffffffffffffffffffffffffffff1673ffffffffffffffffffffffffffffffffffffffff1681526020016001820160009054906101000a900473ffffffffffffffffffffffffffffffffffffffff1673ffffffffffffffffffffffffffffffffffffffff1673ffffffffffffffffffffffffffffffffffffffff1681526020016002820160009054906101000a900473ffffffffffffffffffffffffffffffffffffffff1673ffffffffffffffffffffffffffffffffffffffff1673ffffffffffffffffffffffffffffffffffffffff1681526020016003820154815260200160048201548152602001600582015481526020016006820160009054906101000a900460ff16151515158152602001600782015481525050905060008160e001511415610e73576040517f8733728200000000000000000000000000000000000000000000000000000000815260040160405180910390fd5b6000600660003373ffffffffffffffffffffffffffffffffffffffff1673ffffffffffffffffffffffffffffffffffffffff1681526020019081526020016000206000868152602001908152602001600020604051806101000160405290816000820160009054906101000a900473ffffffffffffffffffffffffffffffffffffffff1673ffffffffffffffffffffffffffffffffffffffff1673ffffffffffffffffffffffffffffffffffffffff1681526020016001820160009054906101000a900473ffffffffffffffffffffffffffffffffffffffff1673ffffffffffffffffffffffffffffffffffffffff1673ffffffffffffffffffffffffffffffffffffffff1681526020016002820160009054906101000a900473ffffffffffffffffffffffffffffffffffffffff1673ffffffffffffffffffffffffffffffffffffffff1673ffffffffffffffffffffffffffffffffffffffff1681526020016003820154815260200160048201548152602001600582015481526020016006820160009054906101000a900460ff1615151515815260200160078201548152505090506000816040015190506000826020015173ffffffffffffffffffffffffffffffffffffffff16636f307dc36040518163ffffffff1660e01b815260040160206040518083038186803b15801561106d57600080fd5b505afa158015611081573d6000803e3d6000fd5b505050506040513d601f19601f820116820180604052508101906110a5919061323f565b905060008273ffffffffffffffffffffffffffffffffffffffff16636f307dc36040518163ffffffff1660e01b815260040160206040518083038186803b1580156110ef57600080fd5b505afa158015611103573d6000803e3d6000fd5b505050506040513d601f19601f82011682018060405250810190611127919061323f565b905060006001905060008560a00151905060006111657f000000000000000000000000000000000000000000000000000000000000000086866115ea565b90506000876020015188604001518960800151338760008d60e0015160405160200161119797969594939291906139f9565b604051602081830303815290604052905060006111b4878761165c565b5090506000808773ffffffffffffffffffffffffffffffffffffffff168373ffffffffffffffffffffffffffffffffffffffff1614156111f6578591506111fa565b8590505b6000600267ffffffffffffffff8111156112175761121661406a565b5b6040519080825280602002602001820160405280156112455781602001602082028036833780820191505090505b509050898160008151811061125d5761125c61403b565b5b602002602001019073ffffffffffffffffffffffffffffffffffffffff16908173ffffffffffffffffffffffffffffffffffffffff168152505088816001815181106112ac576112ab61403b565b5b602002602001019073ffffffffffffffffffffffffffffffffffffffff16908173ffffffffffffffffffffffffffffffffffffffff168152505080600290805190602001906112fc929190612fe4565b508573ffffffffffffffffffffffffffffffffffffffff1663022c0d9f848430896040518563ffffffff1660e01b815260040161133c9493929190613c62565b600060405180830381600087803b15801561135657600080fd5b505af115801561136a573d6000803e3d6000fd5b5050505050505050505050505050505050505050565b60007f0000000000000000000000000000000000000000000000000000000000000000905090565b6006602052816000526040600020602052806000526040600020600091509150508060000160009054906101000a900473ffffffffffffffffffffffffffffffffffffffff16908060010160009054906101000a900473ffffffffffffffffffffffffffffffffffffffff16908060020160009054906101000a900473ffffffffffffffffffffffffffffffffffffffff16908060030154908060040154908060050154908060060160009054906101000a900460ff16908060070154905088565b6114726125a5565b600073ffffffffffffffffffffffffffffffffffffffff168173ffffffffffffffffffffffffffffffffffffffff1614156114e2576040517f08c379a00000000000000000000000000000000000000000000000000000000081526004016114d990613add565b60405180910390fd5b6114eb81612623565b50565b60007f0000000000000000000000000000000000000000000000000000000000000000905090565b600073ffffffffffffffffffffffffffffffffffffffff16600560008373ffffffffffffffffffffffffffffffffffffffff1673ffffffffffffffffffffffffffffffffffffffff16815260200190815260200160002060009054906101000a900473ffffffffffffffffffffffffffffffffffffffff1673ffffffffffffffffffffffffffffffffffffffff1614156115e757806040517f808e96cd0000000000000000000000000000000000000000000000000000000081526004016115de9190613929565b60405180910390fd5b50565b60008060006115f9858561165c565b915091508582826040516020016116119291906138bb565b604051602081830303815290604052805190602001206040516020016116389291906138e7565b6040516020818303038152906040528051906020012060001c925050509392505050565b6000808273ffffffffffffffffffffffffffffffffffffffff168473ffffffffffffffffffffffffffffffffffffffff1614156116ce576040517f08c379a00000000000000000000000000000000000000000000000000000000081526004016116c590613b1d565b60405180910390fd5b8273ffffffffffffffffffffffffffffffffffffffff168473ffffffffffffffffffffffffffffffffffffffff161061170857828461170b565b83835b8092508193505050600073ffffffffffffffffffffffffffffffffffffffff168273ffffffffffffffffffffffffffffffffffffffff161415611783576040517f08c379a000000000000000000000000000000000000000000000000000000000815260040161177a90613b7d565b60405180910390fd5b9250929050565b600260015414156117d0576040517f08c379a00000000000000000000000000000000000000000000000000000000081526004016117c790613b9d565b60405180910390fd5b60026001819055506000859050600087905060008273ffffffffffffffffffffffffffffffffffffffff16636f307dc36040518163ffffffff1660e01b815260040160206040518083038186803b15801561182a57600080fd5b505afa15801561183e573d6000803e3d6000fd5b505050506040513d601f19601f82011682018060405250810190611862919061323f565b905060008273ffffffffffffffffffffffffffffffffffffffff16636f307dc36040518163ffffffff1660e01b815260040160206040518083038186803b1580156118ac57600080fd5b505afa1580156118c0573d6000803e3d6000fd5b505050506040513d601f19601f820116820180604052508101906118e4919061323f565b90506118f1828a8d612897565b60008473ffffffffffffffffffffffffffffffffffffffff16630e7527028d6040518263ffffffff1660e01b815260040161192c9190613bbd565b602060405180830381600087803b15801561194657600080fd5b505af115801561195a573d6000803e3d6000fd5b505050506040513d601f19601f8201168201806040525081019061197e9190613506565b9050600081146119c557806040517f8c53b9470000000000000000000000000000000000000000000000000000000081526004016119bc9190613bbd565b60405180910390fd5b8b600460008573ffffffffffffffffffffffffffffffffffffffff1673ffffffffffffffffffffffffffffffffffffffff1681526020019081526020016000206000828254611a149190613e4d565b9250508190555060007f000000000000000000000000000000000000000000000000000000000000000073ffffffffffffffffffffffffffffffffffffffff16631f00ca748e60026040518363ffffffff1660e01b8152600401611a79929190613bd8565b60006040518083038186803b158015611a9157600080fd5b505afa158015611aa5573d6000803e3d6000fd5b505050506040513d6000823e3d601f19601f82011682018060405250810190611ace9190613463565b600081518110611ae157611ae061403b565b5b602002602001015190508715611bc8578473ffffffffffffffffffffffffffffffffffffffff1663db006a758b6040518263ffffffff1660e01b8152600401611b2a9190613bbd565b602060405180830381600087803b158015611b4457600080fd5b505af1158015611b58573d6000803e3d6000fd5b505050506040513d601f19601f82011682018060405250810190611b7c9190613506565b915060008214611bc357816040517f2d64e12c000000000000000000000000000000000000000000000000000000008152600401611bba9190613bbd565b60405180910390fd5b611c0a565b6000611c09576040517f08c379a0000000000000000000000000000000000000000000000000000000008152600401611c0090613afd565b60405180910390fd5b5b6000611c377f000000000000000000000000000000000000000000000000000000000000000085876115ea565b9050611c836002600081548110611c5157611c5061403b565b5b9060005260206000200160009054906101000a900473ffffffffffffffffffffffffffffffffffffffff16828461295f565b6000611c8f8530612a27565b90506000811115611ca657611ca5858c8361295f565b5b6000600660008d73ffffffffffffffffffffffffffffffffffffffff1673ffffffffffffffffffffffffffffffffffffffff16815260200190815260200160002060008b8152602001908152602001600020604051806101000160405290816000820160009054906101000a900473ffffffffffffffffffffffffffffffffffffffff1673ffffffffffffffffffffffffffffffffffffffff1673ffffffffffffffffffffffffffffffffffffffff1681526020016001820160009054906101000a900473ffffffffffffffffffffffffffffffffffffffff1673ffffffffffffffffffffffffffffffffffffffff1673ffffffffffffffffffffffffffffffffffffffff1681526020016002820160009054906101000a900473ffffffffffffffffffffffffffffffffffffffff1673ffffffffffffffffffffffffffffffffffffffff1673ffffffffffffffffffffffffffffffffffffffff1681526020016003820154815260200160048201548152602001600582015481526020016006820160009054906101000a900460ff16151515158152602001600782015481525050905060008160e001511415611e97578b8a6040517fdfa54575000000000000000000000000000000000000000000000000000000008152600401611e8e929190613a92565b60405180910390fd5b600660008d73ffffffffffffffffffffffffffffffffffffffff1673ffffffffffffffffffffffffffffffffffffffff16815260200190815260200160002060008b8152602001908152602001600020600080820160006101000a81549073ffffffffffffffffffffffffffffffffffffffff02191690556001820160006101000a81549073ffffffffffffffffffffffffffffffffffffffff02191690556002820160006101000a81549073ffffffffffffffffffffffffffffffffffffffff02191690556003820160009055600482016000905560058201600090556006820160006101000a81549060ff0219169055600782016000905550507f9e2dbd30a550cff1e86a62fe46606a4316855d591a5d8d900b4196b5e4eea2958c8b604051611fc4929190613a92565b60405180910390a15050505050505050506001808190555050505050505050565b6000600560008773ffffffffffffffffffffffffffffffffffffffff1673ffffffffffffffffffffffffffffffffffffffff16815260200190815260200160002060009054906101000a900473ffffffffffffffffffffffffffffffffffffffff1690506000600560008773ffffffffffffffffffffffffffffffffffffffff1673ffffffffffffffffffffffffffffffffffffffff16815260200190815260200160002060009054906101000a900473ffffffffffffffffffffffffffffffffffffffff169050600073ffffffffffffffffffffffffffffffffffffffff168273ffffffffffffffffffffffffffffffffffffffff16141561211f57866040517f808e96cd0000000000000000000000000000000000000000000000000000000081526004016121169190613929565b60405180910390fd5b600073ffffffffffffffffffffffffffffffffffffffff168173ffffffffffffffffffffffffffffffffffffffff16141561219157856040517f808e96cd0000000000000000000000000000000000000000000000000000000081526004016121889190613929565b60405180910390fd5b60007f000000000000000000000000000000000000000000000000000000000000000073ffffffffffffffffffffffffffffffffffffffff16631f00ca748a60026040518363ffffffff1660e01b81526004016121ef929190613bd8565b60006040518083038186803b15801561220757600080fd5b505afa15801561221b573d6000803e3d6000fd5b505050506040513d6000823e3d601f19601f820116820180604052508101906122449190613463565b6000815181106122575761225661403b565b5b602002602001015190506000868a61226f9190613d9d565b9050600061227f85858486612aba565b905060006122ae7f00000000000000000000000000000000000000000000000000000000000000008c8c6115ea565b90506122fa60026000815481106122c8576122c761403b565b5b9060005260206000200160009054906101000a900473ffffffffffffffffffffffffffffffffffffffff16828661295f565b600060036000815461230b90613f95565b919050819055905060006040518061010001604052808b73ffffffffffffffffffffffffffffffffffffffff1681526020018973ffffffffffffffffffffffffffffffffffffffff1681526020018873ffffffffffffffffffffffffffffffffffffffff1681526020018681526020018581526020018781526020018a1515815260200183815250905080600660008c73ffffffffffffffffffffffffffffffffffffffff1673ffffffffffffffffffffffffffffffffffffffff168152602001908152602001600020600084815260200190815260200160002060008201518160000160006101000a81548173ffffffffffffffffffffffffffffffffffffffff021916908373ffffffffffffffffffffffffffffffffffffffff16021790555060208201518160010160006101000a81548173ffffffffffffffffffffffffffffffffffffffff021916908373ffffffffffffffffffffffffffffffffffffffff16021790555060408201518160020160006101000a81548173ffffffffffffffffffffffffffffffffffffffff021916908373ffffffffffffffffffffffffffffffffffffffff160217905550606082015181600301556080820151816004015560a0820151816005015560c08201518160060160006101000a81548160ff02191690831515021790555060e0820151816007015590505085600460008e73ffffffffffffffffffffffffffffffffffffffff1673ffffffffffffffffffffffffffffffffffffffff16815260200190815260200160002060008282546125559190613d9d565b925050819055507fc644ad644a8434d449de181dc1ffa334fcb5dbc59ce143955badb77fd94e7fb38a8260405161258d929190613a68565b60405180910390a15050505050505050505050505050565b6125ad612fdc565b73ffffffffffffffffffffffffffffffffffffffff166125cb610587565b73ffffffffffffffffffffffffffffffffffffffff1614612621576040517f08c379a000000000000000000000000000000000000000000000000000000000815260040161261890613b5d565b60405180910390fd5b565b60008060009054906101000a900473ffffffffffffffffffffffffffffffffffffffff169050816000806101000a81548173ffffffffffffffffffffffffffffffffffffffff021916908373ffffffffffffffffffffffffffffffffffffffff1602179055508173ffffffffffffffffffffffffffffffffffffffff168173ffffffffffffffffffffffffffffffffffffffff167f8be0079c531659141344cd1fd0a4f28419497f9722a3daafe3b4186f6b6457e060405160405180910390a35050565b8373ffffffffffffffffffffffffffffffffffffffff166323b872dd8484846040518463ffffffff1660e01b8152600401612724939291906139c2565b602060405180830381600087803b15801561273e57600080fd5b505af1158015612752573d6000803e3d6000fd5b505050506040513d601f19601f8201168201806040525081019061277691906134ac565b6127ac576040517f13a6c1d100000000000000000000000000000000000000000000000000000000815260040160405180910390fd5b50505050565b6000807f000000000000000000000000000000000000000000000000000000000000000073ffffffffffffffffffffffffffffffffffffffff166338ed17398760008888886040518663ffffffff1660e01b8152600401612817959493929190613c08565b600060405180830381600087803b15801561283157600080fd5b505af1158015612845573d6000803e3d6000fd5b505050506040513d6000823e3d601f19601f8201168201806040525081019061286e9190613463565b9050806001815181106128845761288361403b565b5b6020026020010151915050949350505050565b8273ffffffffffffffffffffffffffffffffffffffff1663095ea7b383836040518363ffffffff1660e01b81526004016128d2929190613a92565b602060405180830381600087803b1580156128ec57600080fd5b505af1158015612900573d6000803e3d6000fd5b505050506040513d601f19601f8201168201806040525081019061292491906134ac565b61295a576040517f40baed8900000000000000000000000000000000000000000000000000000000815260040160405180910390fd5b505050565b8273ffffffffffffffffffffffffffffffffffffffff1663a9059cbb83836040518363ffffffff1660e01b815260040161299a929190613a92565b602060405180830381600087803b1580156129b457600080fd5b505af11580156129c8573d6000803e3d6000fd5b505050506040513d601f19601f820116820180604052508101906129ec91906134ac565b612a22576040517f2bc4c87e00000000000000000000000000000000000000000000000000000000815260040160405180910390fd5b505050565b60008273ffffffffffffffffffffffffffffffffffffffff166370a08231836040518263ffffffff1660e01b8152600401612a629190613929565b60206040518083038186803b158015612a7a57600080fd5b505afa158015612a8e573d6000803e3d6000fd5b505050506040513d601f19601f82011682018060405250810190612ab29190613506565b905092915050565b6000807f0000000000000000000000000000000000000000000000000000000000000000905060008690506000869050612b728273ffffffffffffffffffffffffffffffffffffffff16636f307dc36040518163ffffffff1660e01b815260040160206040518083038186803b158015612b3357600080fd5b505afa158015612b47573d6000803e3d6000fd5b505050506040513d601f19601f82011682018060405250810190612b6b919061323f565b8988612897565b6000808373ffffffffffffffffffffffffffffffffffffffff166370a08231306040518263ffffffff1660e01b8152600401612bae9190613929565b602060405180830381600087803b158015612bc857600080fd5b505af1158015612bdc573d6000803e3d6000fd5b505050506040513d601f19601f82011682018060405250810190612c009190613506565b90508373ffffffffffffffffffffffffffffffffffffffff1663a0712d68896040518263ffffffff1660e01b8152600401612c3b9190613bbd565b602060405180830381600087803b158015612c5557600080fd5b505af1158015612c69573d6000803e3d6000fd5b505050506040513d601f19601f82011682018060405250810190612c8d9190613506565b915060008214612cd457816040517fb9697c5a000000000000000000000000000000000000000000000000000000008152600401612ccb9190613bbd565b60405180910390fd5b808473ffffffffffffffffffffffffffffffffffffffff166370a08231306040518263ffffffff1660e01b8152600401612d0e9190613929565b602060405180830381600087803b158015612d2857600080fd5b505af1158015612d3c573d6000803e3d6000fd5b505050506040513d601f19601f82011682018060405250810190612d609190613506565b612d6a9190613e4d565b95506000600167ffffffffffffffff811115612d8957612d8861406a565b5b604051908082528060200260200182016040528015612db75781602001602082028036833780820191505090505b5090508a81600081518110612dcf57612dce61403b565b5b602002602001019073ffffffffffffffffffffffffffffffffffffffff16908173ffffffffffffffffffffffffffffffffffffffff168152505060008673ffffffffffffffffffffffffffffffffffffffff1663c2998238836040518263ffffffff1660e01b8152600401612e449190613abb565b600060405180830381600087803b158015612e5e57600080fd5b505af1158015612e72573d6000803e3d6000fd5b505050506040513d6000823e3d601f19601f82011682018060405250810190612e9b9190613463565b9050600081600081518110612eb357612eb261403b565b5b602002602001015114612efb576040517f08c379a0000000000000000000000000000000000000000000000000000000008152600401612ef290613b3d565b60405180910390fd5b8473ffffffffffffffffffffffffffffffffffffffff1663c5ebeaec8a6040518263ffffffff1660e01b8152600401612f349190613bbd565b602060405180830381600087803b158015612f4e57600080fd5b505af1158015612f62573d6000803e3d6000fd5b505050506040513d601f19601f82011682018060405250810190612f869190613506565b935060008414612fcd57836040517f644056bd000000000000000000000000000000000000000000000000000000008152600401612fc49190613bbd565b60405180910390fd5b50505050505050949350505050565b600033905090565b82805482825590600052602060002090810192821561305d579160200282015b8281111561305c5782518260006101000a81548173ffffffffffffffffffffffffffffffffffffffff021916908373ffffffffffffffffffffffffffffffffffffffff16021790555091602001919060010190613004565b5b50905061306a919061306e565b5090565b5b8082111561308757600081600090555060010161306f565b5090565b600061309e61309984613cd3565b613cae565b905080838252602082019050828560208602820111156130c1576130c06140b6565b5b60005b858110156130f157816130d788826131fd565b8452602084019350602083019250506001810190506130c4565b5050509392505050565b60008135905061310a816142ad565b92915050565b60008151905061311f816142ad565b92915050565b600081359050613134816142c4565b92915050565b600082601f83011261314f5761314e6140b1565b5b815161315f84826020860161308b565b91505092915050565b600081359050613177816142db565b92915050565b60008151905061318c816142db565b92915050565b60008083601f8401126131a8576131a76140b1565b5b8235905067ffffffffffffffff8111156131c5576131c46140ac565b5b6020830191508360018202830111156131e1576131e06140b6565b5b9250929050565b6000813590506131f7816142f2565b92915050565b60008151905061320c816142f2565b92915050565b600060208284031215613228576132276140c0565b5b6000613236848285016130fb565b91505092915050565b600060208284031215613255576132546140c0565b5b600061326384828501613110565b91505092915050565b600080600080600080600060e0888a03121561328b5761328a6140c0565b5b60006132998a828b01613125565b97505060206132aa8a828b01613125565b96505060406132bb8a828b016131e8565b95505060606132cc8a828b01613125565b94505060806132dd8a828b01613168565b93505060a06132ee8a828b01613168565b92505060c06132ff8a828b016131e8565b91505092959891949750929550565b60008060008060008060c0878903121561332b5761332a6140c0565b5b600061333989828a016130fb565b965050602061334a89828a016130fb565b955050604061335b89828a016131e8565b945050606061336c89828a01613168565b935050608061337d89828a016131e8565b92505060a061338e89828a01613168565b9150509295509295509295565b600080604083850312156133b2576133b16140c0565b5b60006133c0858286016130fb565b92505060206133d1858286016131e8565b9150509250929050565b6000806000806000608086880312156133f7576133f66140c0565b5b6000613405888289016130fb565b9550506020613416888289016131e8565b9450506040613427888289016131e8565b935050606086013567ffffffffffffffff811115613448576134476140bb565b5b61345488828901613192565b92509250509295509295909350565b600060208284031215613479576134786140c0565b5b600082015167ffffffffffffffff811115613497576134966140bb565b5b6134a38482850161313a565b91505092915050565b6000602082840312156134c2576134c16140c0565b5b60006134d08482850161317d565b91505092915050565b6000602082840312156134ef576134ee6140c0565b5b60006134fd848285016131e8565b91505092915050565b60006020828403121561351c5761351b6140c0565b5b600061352a848285016131fd565b91505092915050565b600061353f838361354b565b60208301905092915050565b61355481613ea1565b82525050565b61356381613ea1565b82525050565b61357a61357582613ea1565b613fde565b82525050565b600061358b82613d24565b6135958185613d5f565b93506135a083613cff565b8060005b838110156135d15781516135b88882613533565b97506135c383613d45565b9250506001810190506135a4565b5085935050505092915050565b60006135e982613d2f565b6135f38185613d5f565b93506135fe83613d0f565b8060005b838110156136365761361382614099565b61361d8882613533565b975061362883613d52565b925050600181019050613602565b5085935050505092915050565b61364c81613ec5565b82525050565b61365b81613ec5565b82525050565b61367261366d82613ed1565b613ff0565b82525050565b600061368382613d3a565b61368d8185613d70565b935061369d818560208601613f17565b6136a6816140c5565b840191505092915050565b6136ba81613f05565b82525050565b60006136cd602683613d81565b91506136d8826140f0565b604082019050919050565b60006136f0600e83613d81565b91506136fb8261413f565b602082019050919050565b6000613713602583613d81565b915061371e82614168565b604082019050919050565b6000613736602083613d81565b9150613741826141b7565b602082019050919050565b6000613759602083613d92565b9150613764826141e0565b602082019050919050565b600061377c600183613d92565b915061378782614209565b600182019050919050565b600061379f602083613d81565b91506137aa82614232565b602082019050919050565b60006137c2601e83613d81565b91506137cd8261425b565b602082019050919050565b60006137e5601f83613d81565b91506137f082614284565b602082019050919050565b61010082016000820151613812600085018261354b565b506020820151613825602085018261354b565b506040820151613838604085018261354b565b50606082015161384b606085018261389d565b50608082015161385e608085018261389d565b5060a082015161387160a085018261389d565b5060c082015161388460c0850182613643565b5060e082015161389760e085018261389d565b50505050565b6138a681613efb565b82525050565b6138b581613efb565b82525050565b60006138c78285613569565b6014820191506138d78284613569565b6014820191508190509392505050565b60006138f28261376f565b91506138fe8285613569565b60148201915061390e8284613661565b60208201915061391d8261374c565b91508190509392505050565b600060208201905061393e600083018461355a565b92915050565b60006101008201905061395a600083018b61355a565b613967602083018a61355a565b613974604083018961355a565b61398160608301886138ac565b61398e60808301876138ac565b61399b60a08301866138ac565b6139a860c0830185613652565b6139b560e08301846138ac565b9998505050505050505050565b60006060820190506139d7600083018661355a565b6139e4602083018561355a565b6139f160408301846138ac565b949350505050565b600060e082019050613a0e600083018a61355a565b613a1b602083018961355a565b613a2860408301886138ac565b613a35606083018761355a565b613a426080830186613652565b613a4f60a0830185613652565b613a5c60c08301846138ac565b98975050505050505050565b600061012082019050613a7e600083018561355a565b613a8b60208301846137fb565b9392505050565b6000604082019050613aa7600083018561355a565b613ab460208301846138ac565b9392505050565b60006020820190508181036000830152613ad58184613580565b905092915050565b60006020820190508181036000830152613af6816136c0565b9050919050565b60006020820190508181036000830152613b16816136e3565b9050919050565b60006020820190508181036000830152613b3681613706565b9050919050565b60006020820190508181036000830152613b5681613729565b9050919050565b60006020820190508181036000830152613b7681613792565b9050919050565b60006020820190508181036000830152613b96816137b5565b9050919050565b60006020820190508181036000830152613bb6816137d8565b9050919050565b6000602082019050613bd260008301846138ac565b92915050565b6000604082019050613bed60008301856138ac565b8181036020830152613bff81846135de565b90509392505050565b600060a082019050613c1d60008301886138ac565b613c2a60208301876136b1565b8181036040830152613c3c8186613580565b9050613c4b606083018561355a565b613c5860808301846138ac565b9695505050505050565b6000608082019050613c7760008301876138ac565b613c8460208301866138ac565b613c91604083018561355a565b8181036060830152613ca38184613678565b905095945050505050565b6000613cb8613cc9565b9050613cc48282613f64565b919050565b6000604051905090565b600067ffffffffffffffff821115613cee57613ced61406a565b5b602082029050602081019050919050565b6000819050602082019050919050565b60008190508160005260206000209050919050565b600081519050919050565b600081549050919050565b600081519050919050565b6000602082019050919050565b6000600182019050919050565b600082825260208201905092915050565b600082825260208201905092915050565b600082825260208201905092915050565b600081905092915050565b6000613da882613efb565b9150613db383613efb565b9250827fffffffffffffffffffffffffffffffffffffffffffffffffffffffffffffffff03821115613de857613de761400c565b5b828201905092915050565b6000613dfe82613efb565b9150613e0983613efb565b9250817fffffffffffffffffffffffffffffffffffffffffffffffffffffffffffffffff0483118215151615613e4257613e4161400c565b5b828202905092915050565b6000613e5882613efb565b9150613e6383613efb565b925082821015613e7657613e7561400c565b5b828203905092915050565b600073ffffffffffffffffffffffffffffffffffffffff82169050919050565b6000613eac82613edb565b9050919050565b6000613ebe82613edb565b9050919050565b60008115159050919050565b6000819050919050565b600073ffffffffffffffffffffffffffffffffffffffff82169050919050565b6000819050919050565b6000613f1082613efb565b9050919050565b60005b83811015613f35578082015181840152602081019050613f1a565b83811115613f44576000848401525b50505050565b6000613f5d613f58836140e3565b613e81565b9050919050565b613f6d826140c5565b810181811067ffffffffffffffff82111715613f8c57613f8b61406a565b5b80604052505050565b6000613fa082613efb565b91507fffffffffffffffffffffffffffffffffffffffffffffffffffffffffffffffff821415613fd357613fd261400c565b5b600182019050919050565b6000613fe982613ffa565b9050919050565b6000819050919050565b6000614005826140d6565b9050919050565b7f4e487b7100000000000000000000000000000000000000000000000000000000600052601160045260246000fd5b7f4e487b7100000000000000000000000000000000000000000000000000000000600052603260045260246000fd5b7f4e487b7100000000000000000000000000000000000000000000000000000000600052604160045260246000fd5b60006140a58254613f4a565b9050919050565b600080fd5b600080fd5b600080fd5b600080fd5b600080fd5b6000601f19601f8301169050919050565b60008160601b9050919050565b60008160001c9050919050565b7f4f776e61626c653a206e6577206f776e657220697320746865207a65726f206160008201527f6464726573730000000000000000000000000000000000000000000000000000602082015250565b7f63616e6e6f742062652068657265000000000000000000000000000000000000600082015250565b7f556e697377617056324c6962726172793a204944454e544943414c5f4144445260008201527f4553534553000000000000000000000000000000000000000000000000000000602082015250565b7f436f6d7074726f6c6c65722e656e7465724d61726b657473206661696c65642e600082015250565b7f96e8ac4277198ff8b6f785478aa9a39f403cb768dd02cbee326c3e7da348845f600082015250565b7fff00000000000000000000000000000000000000000000000000000000000000600082015250565b7f4f776e61626c653a2063616c6c6572206973206e6f7420746865206f776e6572600082015250565b7f556e697377617056324c6962726172793a205a45524f5f414444524553530000600082015250565b7f5265656e7472616e637947756172643a207265656e7472616e742063616c6c00600082015250565b6142b681613ea1565b81146142c157600080fd5b50565b6142cd81613eb3565b81146142d857600080fd5b50565b6142e481613ec5565b81146142ef57600080fd5b50565b6142fb81613efb565b811461430657600080fd5b5056fea2646970667358221220308557fc6a8978abe26f0134b66b92aeaaae8e65fce0bac411989151e1ab5ce364736f6c63430008070033",
  "linkReferences": {},
  "deployedLinkReferences": {}
}